{
  "contractName": "NameGame",
  "abi": [
    {
      "anonymous": false,
      "inputs": [
        {
          "indexed": true,
          "name": "name",
          "type": "bytes32"
        },
        {
          "indexed": true,
          "name": "addr",
          "type": "address"
        },
        {
          "indexed": true,
          "name": "timeUpdated",
          "type": "uint256"
        }
      ],
      "name": "NameGame",
      "type": "event"
    },
    {
      "constant": true,
      "inputs": [],
      "name": "currentName",
      "outputs": [
        {
          "name": "",
          "type": "bytes32"
        }
      ],
      "payable": false,
      "stateMutability": "view",
      "type": "function"
    },
    {
      "constant": true,
      "inputs": [],
      "name": "lastUpdatedMinutes",
      "outputs": [
        {
          "name": "",
          "type": "uint256"
        }
      ],
      "payable": false,
      "stateMutability": "view",
      "type": "function"
    },
    {
      "constant": true,
      "inputs": [],
      "name": "fromAddres",
      "outputs": [
        {
          "name": "",
          "type": "address"
        }
      ],
      "payable": false,
      "stateMutability": "view",
      "type": "function"
    },
    {
      "constant": false,
      "inputs": [
        {
          "name": "yourName",
          "type": "bytes32"
        }
      ],
      "name": "interact",
      "outputs": [],
      "payable": false,
      "stateMutability": "nonpayable",
      "type": "function"
    }
  ],
  "bytecode": "0x6060604052341561000f57600080fd5b6102798061001e6000396000f300606060405260043610610062576000357c0100000000000000000000000000000000000000000000000000000000900463ffffffff16806312e92de314610067578063627776621461008e5780638c659ab7146100bf578063bd5b383714610114575b600080fd5b341561007257600080fd5b61008c60048080356000191690602001909190505061013d565b005b341561009957600080fd5b6100a1610202565b60405180826000191660001916815260200191505060405180910390f35b34156100ca57600080fd5b6100d261020b565b604051808273ffffffffffffffffffffffffffffffffffffffff1673ffffffffffffffffffffffffffffffffffffffff16815260200191505060405180910390f35b341561011f57600080fd5b610127610235565b6040518082815260200191505060405180910390f35b806000816000191690555033600260006101000a81548173ffffffffffffffffffffffffffffffffffffffff021916908373ffffffffffffffffffffffffffffffffffffffff16021790555042600181905550600154600260009054906101000a900473ffffffffffffffffffffffffffffffffffffffff1673ffffffffffffffffffffffffffffffffffffffff16600054600019167fdee644f355c16b0145ccb271f8d1654463836dd2a32e6d283a3e909d3917df7a60405160405180910390a450565b60008054905090565b6000600260009054906101000a900473ffffffffffffffffffffffffffffffffffffffff16905090565b6000603c600154420381151561024757fe5b049050905600a165627a7a7230582048ad40b4cde5847bcdd502bdf4943c72bc915c853c19c672de6bbc5fe0d510650029",
  "source": "pragma solidity ^0.4.18;\n\ncontract NameGame {\n\n  bytes32 name;\n  uint    lastUpdated;\n  address lastAddress;\n\n  event NameGame(bytes32 indexed name, address indexed addr, uint indexed timeUpdated);\n\n  function  currentName() public constant returns(bytes32) {\n    return name;\n  }\n\n  function  lastUpdatedMinutes() public constant returns(uint) {\n    return ((now - lastUpdated)/60);\n  }\n\n  function  fromAddres() public constant returns(address) {\n    return lastAddress;\n  }\n\n  function interact(bytes32 yourName) public {\n    name = yourName;\n    lastAddress = msg.sender;\n    lastUpdated = now;\n    NameGame(name,lastAddress,lastUpdated);\n  }\n}\n",
  "sourcePath": "/Users/ajuljulian/Documents/Development/ethereum/ethereum-react-playground/contracts/NameGame.sol",
  "compiler": {
    "name": "solc",
    "version": "0.4.19+commit.c4cbbb05.Emscripten.clang"
  },
  "schemaVersion": "2.0.0",
  "updatedAt": "2018-03-16T18:56:55.289Z"
}